:0A01D300EF1FAC0670011E4C600E19
:0C01DD007525027526EFD526FDD525FA04
:0301E90080E82289
:1002320012024612020575907F7B007A00796812DD
:04024200028980FEAF
:06025A00C2A58F80D2A7AF
:080260007F027EEFDEFEDFFCF1
:010268002273
:0A027500C2A612025AC2A7020260DC
:10019800CFCDCFCECCCE1200427C007D0A120042D9
:0401A800ED2430FF13
:0A01AC00D2A612025AC2A702026096
:10021C00AE07BE0104ED148006BE0209ED243F4476
:06022C0080FF12027522A2
:100246007F381202757F0C1202757F061202757FC7
:04025600010202752A
:0A027F00AC0312021CAF040201AC34
:060175008B228A2389247D
:10017B0012021CE4FDAB22AA23A9248D82758300F5
:0C018B00120003FF60061201AC0D80E9B9
:010197002245
:0C0142007F0AEA24FFFDE434FFFC7E008D
:08014E008E1E8F1F8C208D21F5
:100156007F017E00E4FBEBC39521E5206480F87403
:0E0166008098500AAC1EAD1F1200300B80E8CE
:010174002268
:0401B6008A118B120D
:1001BA0012021CAA13EAD39400400D120142AC1198
:0801CA00AD121201981A80ED3C
:0101D200220A
:1000970012021CC3EA64809480400B7F2B1201ACD0
:1000A7008A0D8B0E800E7F2D1201ACC3E49BF50EDB
:1000B700E49AF50DAA0CEAD39400400D120142AC64
:0900C7000DAD0E1201981A80ED36
:0100D000220D
:0400D1008A168B17E9
:1000D50012021CAA18EAD3940040297F1012014489
:1000E500AC16AD17CFCDCFCECCCE120042EF540F0C
:1000F500FEC3940AEE5004243080022437FF120117
:04010500AC1A80D1DF
:0101090022D3
:04010A008A1B8B1CA5
:10010E0012021CAA1DEAD394004028EA24FFFDE443
:10011E0034FFFC7F027E0012014EAC1BAD1CCFCD16
:10012E00CFCECCCE120042EF54012430FF1201ACE0
:03013E001A80D252
:01014100229B
:0A01EC00EF1FAC0670011E4C600E00
:0C01F6007527027528EFD528FDD527FAE3
:0302020080E8226F
:1002050075984043878053890F438920758BF37513
:070215008DF3C2ABD28E2273
:080289008F993099FDC2992202
:0300000002026990
:0C026900787FE4F6D8FD7581280202328F
:10000300BB010CE58229F582E5833AF583E02250B2
:1000130006E92582F8E622BBFE06E92582F8E222FC
:0D002300E58229F582E5833AF583E4932216
:10003000EF8DF0A4A8F0CF8CF0A428CE8DF0A42EE4
:02004000FE229E
:10004200BC000BBE0029EF8DF084FFADF022E4CCA2
:10005200F875F008EF2FFFEE33FEEC33FCEE9DEC6B
:10006200984005FCEE9DFE0FD5F0E9E4CEFD22EDB1
:10007200F8F5F0EE8420D21CFEADF075F008EF2FFB
:10008200FFED33FD4007985006D5F0F222C398FDEC
:050092000FD5F0EA2289
:00000001FF
